{
  "_format": "hh-sol-artifact-1",
  "contractName": "FundToken",
  "sourceName": "contracts/FundToken.sol",
  "abi": [
    {
      "inputs": [
        {
          "internalType": "uint256",
          "name": "initialSuppy",
          "type": "uint256"
        }
      ],
      "stateMutability": "nonpayable",
      "type": "constructor"
    },
    {
      "inputs": [
        {
          "internalType": "address",
          "name": "spender",
          "type": "address"
        },
        {
          "internalType": "uint256",
          "name": "allowance",
          "type": "uint256"
        },
        {
          "internalType": "uint256",
          "name": "needed",
          "type": "uint256"
        }
      ],
      "name": "ERC20InsufficientAllowance",
      "type": "error"
    },
    {
      "inputs": [
        {
          "internalType": "address",
          "name": "sender",
          "type": "address"
        },
        {
          "internalType": "uint256",
          "name": "balance",
          "type": "uint256"
        },
        {
          "internalType": "uint256",
          "name": "needed",
          "type": "uint256"
        }
      ],
      "name": "ERC20InsufficientBalance",
      "type": "error"
    },
    {
      "inputs": [
        {
          "internalType": "address",
          "name": "approver",
          "type": "address"
        }
      ],
      "name": "ERC20InvalidApprover",
      "type": "error"
    },
    {
      "inputs": [
        {
          "internalType": "address",
          "name": "receiver",
          "type": "address"
        }
      ],
      "name": "ERC20InvalidReceiver",
      "type": "error"
    },
    {
      "inputs": [
        {
          "internalType": "address",
          "name": "sender",
          "type": "address"
        }
      ],
      "name": "ERC20InvalidSender",
      "type": "error"
    },
    {
      "inputs": [
        {
          "internalType": "address",
          "name": "spender",
          "type": "address"
        }
      ],
      "name": "ERC20InvalidSpender",
      "type": "error"
    },
    {
      "inputs": [
        {
          "internalType": "address",
          "name": "owner",
          "type": "address"
        }
      ],
      "name": "OwnableInvalidOwner",
      "type": "error"
    },
    {
      "inputs": [
        {
          "internalType": "address",
          "name": "account",
          "type": "address"
        }
      ],
      "name": "OwnableUnauthorizedAccount",
      "type": "error"
    },
    {
      "anonymous": false,
      "inputs": [
        {
          "indexed": true,
          "internalType": "address",
          "name": "owner",
          "type": "address"
        },
        {
          "indexed": true,
          "internalType": "address",
          "name": "spender",
          "type": "address"
        },
        {
          "indexed": false,
          "internalType": "uint256",
          "name": "value",
          "type": "uint256"
        }
      ],
      "name": "Approval",
      "type": "event"
    },
    {
      "anonymous": false,
      "inputs": [
        {
          "indexed": true,
          "internalType": "address",
          "name": "previousOwner",
          "type": "address"
        },
        {
          "indexed": true,
          "internalType": "address",
          "name": "newOwner",
          "type": "address"
        }
      ],
      "name": "OwnershipTransferred",
      "type": "event"
    },
    {
      "anonymous": false,
      "inputs": [
        {
          "indexed": true,
          "internalType": "address",
          "name": "from",
          "type": "address"
        },
        {
          "indexed": true,
          "internalType": "address",
          "name": "to",
          "type": "address"
        },
        {
          "indexed": false,
          "internalType": "uint256",
          "name": "value",
          "type": "uint256"
        }
      ],
      "name": "Transfer",
      "type": "event"
    },
    {
      "inputs": [
        {
          "internalType": "address",
          "name": "owner",
          "type": "address"
        },
        {
          "internalType": "address",
          "name": "spender",
          "type": "address"
        }
      ],
      "name": "allowance",
      "outputs": [
        {
          "internalType": "uint256",
          "name": "",
          "type": "uint256"
        }
      ],
      "stateMutability": "view",
      "type": "function"
    },
    {
      "inputs": [
        {
          "internalType": "address",
          "name": "spender",
          "type": "address"
        },
        {
          "internalType": "uint256",
          "name": "value",
          "type": "uint256"
        }
      ],
      "name": "approve",
      "outputs": [
        {
          "internalType": "bool",
          "name": "",
          "type": "bool"
        }
      ],
      "stateMutability": "nonpayable",
      "type": "function"
    },
    {
      "inputs": [
        {
          "internalType": "address",
          "name": "account",
          "type": "address"
        }
      ],
      "name": "balanceOf",
      "outputs": [
        {
          "internalType": "uint256",
          "name": "",
          "type": "uint256"
        }
      ],
      "stateMutability": "view",
      "type": "function"
    },
    {
      "inputs": [],
      "name": "buyTokens",
      "outputs": [],
      "stateMutability": "payable",
      "type": "function"
    },
    {
      "inputs": [],
      "name": "decimals",
      "outputs": [
        {
          "internalType": "uint8",
          "name": "",
          "type": "uint8"
        }
      ],
      "stateMutability": "view",
      "type": "function"
    },
    {
      "inputs": [],
      "name": "name",
      "outputs": [
        {
          "internalType": "string",
          "name": "",
          "type": "string"
        }
      ],
      "stateMutability": "view",
      "type": "function"
    },
    {
      "inputs": [],
      "name": "owner",
      "outputs": [
        {
          "internalType": "address",
          "name": "",
          "type": "address"
        }
      ],
      "stateMutability": "view",
      "type": "function"
    },
    {
      "inputs": [],
      "name": "renounceOwnership",
      "outputs": [],
      "stateMutability": "nonpayable",
      "type": "function"
    },
    {
      "inputs": [
        {
          "internalType": "uint256",
          "name": "amount",
          "type": "uint256"
        }
      ],
      "name": "sellTokens",
      "outputs": [],
      "stateMutability": "nonpayable",
      "type": "function"
    },
    {
      "inputs": [
        {
          "internalType": "uint256",
          "name": "newPrice",
          "type": "uint256"
        }
      ],
      "name": "setTokenPrice",
      "outputs": [],
      "stateMutability": "nonpayable",
      "type": "function"
    },
    {
      "inputs": [],
      "name": "symbol",
      "outputs": [
        {
          "internalType": "string",
          "name": "",
          "type": "string"
        }
      ],
      "stateMutability": "view",
      "type": "function"
    },
    {
      "inputs": [],
      "name": "tokenPrice",
      "outputs": [
        {
          "internalType": "uint256",
          "name": "",
          "type": "uint256"
        }
      ],
      "stateMutability": "view",
      "type": "function"
    },
    {
      "inputs": [],
      "name": "totalSupply",
      "outputs": [
        {
          "internalType": "uint256",
          "name": "",
          "type": "uint256"
        }
      ],
      "stateMutability": "view",
      "type": "function"
    },
    {
      "inputs": [
        {
          "internalType": "address",
          "name": "to",
          "type": "address"
        },
        {
          "internalType": "uint256",
          "name": "value",
          "type": "uint256"
        }
      ],
      "name": "transfer",
      "outputs": [
        {
          "internalType": "bool",
          "name": "",
          "type": "bool"
        }
      ],
      "stateMutability": "nonpayable",
      "type": "function"
    },
    {
      "inputs": [
        {
          "internalType": "address",
          "name": "from",
          "type": "address"
        },
        {
          "internalType": "address",
          "name": "to",
          "type": "address"
        },
        {
          "internalType": "uint256",
          "name": "value",
          "type": "uint256"
        }
      ],
      "name": "transferFrom",
      "outputs": [
        {
          "internalType": "bool",
          "name": "",
          "type": "bool"
        }
      ],
      "stateMutability": "nonpayable",
      "type": "function"
    },
    {
      "inputs": [
        {
          "internalType": "address",
          "name": "newOwner",
          "type": "address"
        }
      ],
      "name": "transferOwnership",
      "outputs": [],
      "stateMutability": "nonpayable",
      "type": "function"
    }
  ],
  "bytecode": "0x60806040526509184e72a00060065534801561001a57600080fd5b5060405161226e38038061226e833981810160405281019061003c919061053e565b336040518060400160405280600981526020017f426c61636b726f636b00000000000000000000000000000000000000000000008152506040518060400160405280600381526020017f424c4b000000000000000000000000000000000000000000000000000000000081525081600390816100b891906107b1565b5080600490816100c891906107b1565b505050600073ffffffffffffffffffffffffffffffffffffffff168173ffffffffffffffffffffffffffffffffffffffff160361013d5760006040517f1e4fbdf700000000000000000000000000000000000000000000000000000000815260040161013491906108c4565b60405180910390fd5b61014c8161018760201b60201c565b506101813361015f61024d60201b60201c565b600a61016b9190610a4e565b836101769190610a99565b61025660201b60201c565b50610b70565b6000600560009054906101000a900473ffffffffffffffffffffffffffffffffffffffff16905081600560006101000a81548173ffffffffffffffffffffffffffffffffffffffff021916908373ffffffffffffffffffffffffffffffffffffffff1602179055508173ffffffffffffffffffffffffffffffffffffffff168173ffffffffffffffffffffffffffffffffffffffff167f8be0079c531659141344cd1fd0a4f28419497f9722a3daafe3b4186f6b6457e060405160405180910390a35050565b60006012905090565b600073ffffffffffffffffffffffffffffffffffffffff168273ffffffffffffffffffffffffffffffffffffffff16036102c85760006040517fec442f050000000000000000000000000000000000000000000000000000000081526004016102bf91906108c4565b60405180910390fd5b6102da600083836102de60201b60201c565b5050565b600073ffffffffffffffffffffffffffffffffffffffff168373ffffffffffffffffffffffffffffffffffffffff16036103305780600260008282546103249190610adb565b92505081905550610403565b60008060008573ffffffffffffffffffffffffffffffffffffffff1673ffffffffffffffffffffffffffffffffffffffff168152602001908152602001600020549050818110156103bc578381836040517fe450d38c0000000000000000000000000000000000000000000000000000000081526004016103b393929190610b1e565b60405180910390fd5b8181036000808673ffffffffffffffffffffffffffffffffffffffff1673ffffffffffffffffffffffffffffffffffffffff16815260200190815260200160002081905550505b600073ffffffffffffffffffffffffffffffffffffffff168273ffffffffffffffffffffffffffffffffffffffff160361044c5780600260008282540392505081905550610499565b806000808473ffffffffffffffffffffffffffffffffffffffff1673ffffffffffffffffffffffffffffffffffffffff168152602001908152602001600020600082825401925050819055505b8173ffffffffffffffffffffffffffffffffffffffff168373ffffffffffffffffffffffffffffffffffffffff167fddf252ad1be2c89b69c2b068fc378daa952ba7f163c4a11628f55a4df523b3ef836040516104f69190610b55565b60405180910390a3505050565b600080fd5b6000819050919050565b61051b81610508565b811461052657600080fd5b50565b60008151905061053881610512565b92915050565b60006020828403121561055457610553610503565b5b600061056284828501610529565b91505092915050565b600081519050919050565b7f4e487b7100000000000000000000000000000000000000000000000000000000600052604160045260246000fd5b7f4e487b7100000000000000000000000000000000000000000000000000000000600052602260045260246000fd5b600060028204905060018216806105ec57607f821691505b6020821081036105ff576105fe6105a5565b5b50919050565b60008190508160005260206000209050919050565b60006020601f8301049050919050565b600082821b905092915050565b6000600883026106677fffffffffffffffffffffffffffffffffffffffffffffffffffffffffffffffff8261062a565b610671868361062a565b95508019841693508086168417925050509392505050565b6000819050919050565b60006106ae6106a96106a484610508565b610689565b610508565b9050919050565b6000819050919050565b6106c883610693565b6106dc6106d4826106b5565b848454610637565b825550505050565b600090565b6106f16106e4565b6106fc8184846106bf565b505050565b5b81811015610720576107156000826106e9565b600181019050610702565b5050565b601f8211156107655761073681610605565b61073f8461061a565b8101602085101561074e578190505b61076261075a8561061a565b830182610701565b50505b505050565b600082821c905092915050565b60006107886000198460080261076a565b1980831691505092915050565b60006107a18383610777565b9150826002028217905092915050565b6107ba8261056b565b67ffffffffffffffff8111156107d3576107d2610576565b5b6107dd82546105d4565b6107e8828285610724565b600060209050601f83116001811461081b5760008415610809578287015190505b6108138582610795565b86555061087b565b601f19841661082986610605565b60005b828110156108515784890151825560018201915060208501945060208101905061082c565b8683101561086e578489015161086a601f891682610777565b8355505b6001600288020188555050505b505050505050565b600073ffffffffffffffffffffffffffffffffffffffff82169050919050565b60006108ae82610883565b9050919050565b6108be816108a3565b82525050565b60006020820190506108d960008301846108b5565b92915050565b7f4e487b7100000000000000000000000000000000000000000000000000000000600052601160045260246000fd5b60008160011c9050919050565b6000808291508390505b600185111561096557808604811115610941576109406108df565b5b60018516156109505780820291505b808102905061095e8561090e565b9450610925565b94509492505050565b60008261097e5760019050610a3a565b8161098c5760009050610a3a565b81600181146109a257600281146109ac576109db565b6001915050610a3a565b60ff8411156109be576109bd6108df565b5b8360020a9150848211156109d5576109d46108df565b5b50610a3a565b5060208310610133831016604e8410600b8410161715610a105782820a905083811115610a0b57610a0a6108df565b5b610a3a565b610a1d848484600161091b565b92509050818404811115610a3457610a336108df565b5b81810290505b9392505050565b600060ff82169050919050565b6000610a5982610508565b9150610a6483610a41565b9250610a917fffffffffffffffffffffffffffffffffffffffffffffffffffffffffffffffff848461096e565b905092915050565b6000610aa482610508565b9150610aaf83610508565b9250828202610abd81610508565b91508282048414831517610ad457610ad36108df565b5b5092915050565b6000610ae682610508565b9150610af183610508565b9250828201905080821115610b0957610b086108df565b5b92915050565b610b1881610508565b82525050565b6000606082019050610b3360008301866108b5565b610b406020830185610b0f565b610b4d6040830184610b0f565b949350505050565b6000602082019050610b6a6000830184610b0f565b92915050565b6116ef80610b7f6000396000f3fe6080604052600436106100f35760003560e01c8063715018a61161008a578063a9059cbb11610059578063a9059cbb1461031a578063d0febe4c14610357578063dd62ed3e14610361578063f2fde38b1461039e576100f3565b8063715018a6146102825780637ff9b596146102995780638da5cb5b146102c457806395d89b41146102ef576100f3565b8063313ce567116100c6578063313ce567146101c85780636a61e5fc146101f35780636c11bcd31461021c57806370a0823114610245576100f3565b806306fdde03146100f8578063095ea7b31461012357806318160ddd1461016057806323b872dd1461018b575b600080fd5b34801561010457600080fd5b5061010d6103c7565b60405161011a9190611052565b60405180910390f35b34801561012f57600080fd5b5061014a6004803603810190610145919061110d565b610459565b6040516101579190611168565b60405180910390f35b34801561016c57600080fd5b5061017561047c565b6040516101829190611192565b60405180910390f35b34801561019757600080fd5b506101b260048036038101906101ad91906111ad565b610486565b6040516101bf9190611168565b60405180910390f35b3480156101d457600080fd5b506101dd6104b5565b6040516101ea919061121c565b60405180910390f35b3480156101ff57600080fd5b5061021a60048036038101906102159190611237565b6104be565b005b34801561022857600080fd5b50610243600480360381019061023e9190611237565b6104d0565b005b34801561025157600080fd5b5061026c60048036038101906102679190611264565b6105cd565b6040516102799190611192565b60405180910390f35b34801561028e57600080fd5b50610297610615565b005b3480156102a557600080fd5b506102ae610629565b6040516102bb9190611192565b60405180910390f35b3480156102d057600080fd5b506102d961062f565b6040516102e691906112a0565b60405180910390f35b3480156102fb57600080fd5b50610304610659565b6040516103119190611052565b60405180910390f35b34801561032657600080fd5b50610341600480360381019061033c919061110d565b6106eb565b60405161034e9190611168565b60405180910390f35b61035f61070e565b005b34801561036d57600080fd5b50610388600480360381019061038391906112bb565b6107ca565b6040516103959190611192565b60405180910390f35b3480156103aa57600080fd5b506103c560048036038101906103c09190611264565b610851565b005b6060600380546103d69061132a565b80601f01602080910402602001604051908101604052809291908181526020018280546104029061132a565b801561044f5780601f106104245761010080835404028352916020019161044f565b820191906000526020600020905b81548152906001019060200180831161043257829003601f168201915b5050505050905090565b6000806104646108d7565b90506104718185856108df565b600191505092915050565b6000600254905090565b6000806104916108d7565b905061049e8582856108f1565b6104a9858585610985565b60019150509392505050565b60006012905090565b6104c6610a79565b8060068190555050565b806104da336105cd565b101561051b576040517f08c379a0000000000000000000000000000000000000000000000000000000008152600401610512906113a7565b60405180910390fd5b60006006548261052b91906113f6565b905080471015610570576040517f08c379a0000000000000000000000000000000000000000000000000000000008152600401610567906114aa565b60405180910390fd5b6105823361057c61062f565b84610985565b3373ffffffffffffffffffffffffffffffffffffffff166108fc829081150290604051600060405180830381858888f193505050501580156105c8573d6000803e3d6000fd5b505050565b60008060008373ffffffffffffffffffffffffffffffffffffffff1673ffffffffffffffffffffffffffffffffffffffff168152602001908152602001600020549050919050565b61061d610a79565b6106276000610b00565b565b60065481565b6000600560009054906101000a900473ffffffffffffffffffffffffffffffffffffffff16905090565b6060600480546106689061132a565b80601f01602080910402602001604051908101604052809291908181526020018280546106949061132a565b80156106e15780601f106106b6576101008083540402835291602001916106e1565b820191906000526020600020905b8154815290600101906020018083116106c457829003601f168201915b5050505050905090565b6000806106f66108d7565b9050610703818585610985565b600191505092915050565b60003411610751576040517f08c379a00000000000000000000000000000000000000000000000000000000081526004016107489061153c565b60405180910390fd5b600060065434610761919061158b565b90508061077461076f61062f565b6105cd565b10156107b5576040517f08c379a00000000000000000000000000000000000000000000000000000000081526004016107ac9061162e565b60405180910390fd5b6107c76107c061062f565b3383610985565b50565b6000600160008473ffffffffffffffffffffffffffffffffffffffff1673ffffffffffffffffffffffffffffffffffffffff16815260200190815260200160002060008373ffffffffffffffffffffffffffffffffffffffff1673ffffffffffffffffffffffffffffffffffffffff16815260200190815260200160002054905092915050565b610859610a79565b600073ffffffffffffffffffffffffffffffffffffffff168173ffffffffffffffffffffffffffffffffffffffff16036108cb5760006040517f1e4fbdf70000000000000000000000000000000000000000000000000000000081526004016108c291906112a0565b60405180910390fd5b6108d481610b00565b50565b600033905090565b6108ec8383836001610bc6565b505050565b60006108fd84846107ca565b90507fffffffffffffffffffffffffffffffffffffffffffffffffffffffffffffffff811461097f578181101561096f578281836040517ffb8f41b20000000000000000000000000000000000000000000000000000000081526004016109669392919061164e565b60405180910390fd5b61097e84848484036000610bc6565b5b50505050565b600073ffffffffffffffffffffffffffffffffffffffff168373ffffffffffffffffffffffffffffffffffffffff16036109f75760006040517f96c6fd1e0000000000000000000000000000000000000000000000000000000081526004016109ee91906112a0565b60405180910390fd5b600073ffffffffffffffffffffffffffffffffffffffff168273ffffffffffffffffffffffffffffffffffffffff1603610a695760006040517fec442f05000000000000000000000000000000000000000000000000000000008152600401610a6091906112a0565b60405180910390fd5b610a74838383610d9d565b505050565b610a816108d7565b73ffffffffffffffffffffffffffffffffffffffff16610a9f61062f565b73ffffffffffffffffffffffffffffffffffffffff1614610afe57610ac26108d7565b6040517f118cdaa7000000000000000000000000000000000000000000000000000000008152600401610af591906112a0565b60405180910390fd5b565b6000600560009054906101000a900473ffffffffffffffffffffffffffffffffffffffff16905081600560006101000a81548173ffffffffffffffffffffffffffffffffffffffff021916908373ffffffffffffffffffffffffffffffffffffffff1602179055508173ffffffffffffffffffffffffffffffffffffffff168173ffffffffffffffffffffffffffffffffffffffff167f8be0079c531659141344cd1fd0a4f28419497f9722a3daafe3b4186f6b6457e060405160405180910390a35050565b600073ffffffffffffffffffffffffffffffffffffffff168473ffffffffffffffffffffffffffffffffffffffff1603610c385760006040517fe602df05000000000000000000000000000000000000000000000000000000008152600401610c2f91906112a0565b60405180910390fd5b600073ffffffffffffffffffffffffffffffffffffffff168373ffffffffffffffffffffffffffffffffffffffff1603610caa5760006040517f94280d62000000000000000000000000000000000000000000000000000000008152600401610ca191906112a0565b60405180910390fd5b81600160008673ffffffffffffffffffffffffffffffffffffffff1673ffffffffffffffffffffffffffffffffffffffff16815260200190815260200160002060008573ffffffffffffffffffffffffffffffffffffffff1673ffffffffffffffffffffffffffffffffffffffff168152602001908152602001600020819055508015610d97578273ffffffffffffffffffffffffffffffffffffffff168473ffffffffffffffffffffffffffffffffffffffff167f8c5be1e5ebec7d5bd14f71427d1e84f3dd0314c0f7b2291e5b200ac8c7c3b92584604051610d8e9190611192565b60405180910390a35b50505050565b600073ffffffffffffffffffffffffffffffffffffffff168373ffffffffffffffffffffffffffffffffffffffff1603610def578060026000828254610de39190611685565b92505081905550610ec2565b60008060008573ffffffffffffffffffffffffffffffffffffffff1673ffffffffffffffffffffffffffffffffffffffff16815260200190815260200160002054905081811015610e7b578381836040517fe450d38c000000000000000000000000000000000000000000000000000000008152600401610e729392919061164e565b60405180910390fd5b8181036000808673ffffffffffffffffffffffffffffffffffffffff1673ffffffffffffffffffffffffffffffffffffffff16815260200190815260200160002081905550505b600073ffffffffffffffffffffffffffffffffffffffff168273ffffffffffffffffffffffffffffffffffffffff1603610f0b5780600260008282540392505081905550610f58565b806000808473ffffffffffffffffffffffffffffffffffffffff1673ffffffffffffffffffffffffffffffffffffffff168152602001908152602001600020600082825401925050819055505b8173ffffffffffffffffffffffffffffffffffffffff168373ffffffffffffffffffffffffffffffffffffffff167fddf252ad1be2c89b69c2b068fc378daa952ba7f163c4a11628f55a4df523b3ef83604051610fb59190611192565b60405180910390a3505050565b600081519050919050565b600082825260208201905092915050565b60005b83811015610ffc578082015181840152602081019050610fe1565b60008484015250505050565b6000601f19601f8301169050919050565b600061102482610fc2565b61102e8185610fcd565b935061103e818560208601610fde565b61104781611008565b840191505092915050565b6000602082019050818103600083015261106c8184611019565b905092915050565b600080fd5b600073ffffffffffffffffffffffffffffffffffffffff82169050919050565b60006110a482611079565b9050919050565b6110b481611099565b81146110bf57600080fd5b50565b6000813590506110d1816110ab565b92915050565b6000819050919050565b6110ea816110d7565b81146110f557600080fd5b50565b600081359050611107816110e1565b92915050565b6000806040838503121561112457611123611074565b5b6000611132858286016110c2565b9250506020611143858286016110f8565b9150509250929050565b60008115159050919050565b6111628161114d565b82525050565b600060208201905061117d6000830184611159565b92915050565b61118c816110d7565b82525050565b60006020820190506111a76000830184611183565b92915050565b6000806000606084860312156111c6576111c5611074565b5b60006111d4868287016110c2565b93505060206111e5868287016110c2565b92505060406111f6868287016110f8565b9150509250925092565b600060ff82169050919050565b61121681611200565b82525050565b6000602082019050611231600083018461120d565b92915050565b60006020828403121561124d5761124c611074565b5b600061125b848285016110f8565b91505092915050565b60006020828403121561127a57611279611074565b5b6000611288848285016110c2565b91505092915050565b61129a81611099565b82525050565b60006020820190506112b56000830184611291565b92915050565b600080604083850312156112d2576112d1611074565b5b60006112e0858286016110c2565b92505060206112f1858286016110c2565b9150509250929050565b7f4e487b7100000000000000000000000000000000000000000000000000000000600052602260045260246000fd5b6000600282049050600182168061134257607f821691505b602082108103611355576113546112fb565b5b50919050565b7f496e73756666696369656e7420746f6b656e2062616c616e6365000000000000600082015250565b6000611391601a83610fcd565b915061139c8261135b565b602082019050919050565b600060208201905081810360008301526113c081611384565b9050919050565b7f4e487b7100000000000000000000000000000000000000000000000000000000600052601160045260246000fd5b6000611401826110d7565b915061140c836110d7565b925082820261141a816110d7565b91508282048414831517611431576114306113c7565b5b5092915050565b7f436f6e747261637420646f6573206e6f74206861766520656e6f75676820457460008201527f6865722e00000000000000000000000000000000000000000000000000000000602082015250565b6000611494602483610fcd565b915061149f82611438565b604082019050919050565b600060208201905081810360008301526114c381611487565b9050919050565b7f596f75206e65656420746f2073656e6420736f6d6520457468657220746f206260008201527f757920746f6b656e732e00000000000000000000000000000000000000000000602082015250565b6000611526602a83610fcd565b9150611531826114ca565b604082019050919050565b6000602082019050818103600083015261155581611519565b9050919050565b7f4e487b7100000000000000000000000000000000000000000000000000000000600052601260045260246000fd5b6000611596826110d7565b91506115a1836110d7565b9250826115b1576115b061155c565b5b828204905092915050565b7f4e6f7420656e6f75676820746f6b656e7320617661696c61626c6520666f722060008201527f73616c652e000000000000000000000000000000000000000000000000000000602082015250565b6000611618602583610fcd565b9150611623826115bc565b604082019050919050565b600060208201905081810360008301526116478161160b565b9050919050565b60006060820190506116636000830186611291565b6116706020830185611183565b61167d6040830184611183565b949350505050565b6000611690826110d7565b915061169b836110d7565b92508282019050808211156116b3576116b26113c7565b5b9291505056fea264697066735822122083ed31867e0d571b61d8ffdaeea9010f185f815610d5ac10d74ae6b0dff8f42764736f6c634300081b0033",
  "linkReferences": {},
  "deployedLinkReferences": {}
}